S027000054696D65725F4E6F726D616C5F4D6F64655F44656C61795F506F6C6C696E672E73726563CE
S11300000C942A000C943C000C943C000C943C008E
S11300100C943C000C943C000C943C000C943C006C
S11300200C943C000C943C000C943C000C943C005C
S11300300C943C000C943C000C943C000C943C004C
S11300400C943C000C943C000C943C000C943C003C
S11300500C943C0011241FBECFE5D8E0DEBFCDBF19
S113006020E0A0E6B0E001C01D92A336B207E1F79C
S11300700E943E000C9477000C94000081B3806EC3
S113008081BB83B7836083BF20E290E408B600FE9F
S1130090FDCF88B7816088BF809162008F5F8093B5
S11300A06200809161008F5F8093610080916000A5
S11300B08F5F8093600080916200883C29F482B352
S11300C0822782BB10926200809161008A3F29F4EA
S11300D082B3892782BB10926100809160008436CC
S11300E0A9F682B3805882BB10926000CFCFF894F7
S10500F0FFCF3C
S9030000FC
