S016000044495053575F53554D5F504F52542E737265638F
S11300000C942A000C9434000C9434000C943400A6
S11300100C9434000C9434000C9434000C9434008C
S11300200C9434000C9434000C9434000C9434007C
S11300300C9434000C9434000C9434000C9434006C
S11300400C9434000C9434000C9434000C9434005C
S11300500C94340011241FBECFE5D8E0DEBFCDBF21
S11300600E9436000C944F000C9400008AB38ABBA3
S113007087B387BB84B38FEF84BB18BA15BA1BBA96
S113008015BA96B389B3890F85BB2FEF89E698E13A
S1130090215080409040E1F700C00000F1CFF89477
S10500A0FFCF8C
S9030000FC
