S0150000537465707065725F4D6F746F722E73726563BC
S11300000C942A000C9434000C9434000C943400A6
S11300100C9434000C9434000C9434000C9434008C
S11300200C9434000C9434000C9434000C9434007C
S11300300C9434000C9434000C9434000C9434006C
S11300400C9434000C9434000C9434000C9434005C
S11300500C94340011241FBECFE5D8E0DEBFCDBF21
S11300600E9457000C94A2000C940000823071F09E
S113007018F4813031F00895833079F0843091F0B0
S1130080089585B3806685BBAB98089585B3806376
S113009085BB85B3887085BB089585B3886185BBAE
S11300A0AD98089585B3886485BBAC98089584B3EE
S11300B0886784BB81B3806381BB82B3806382BB66
S11300C02FEF87EA91E6215080409040E1F700C08D
S11300D0000081E00E9436002FEF87EA91E621506C
S11300E080409040E1F700C0000085B385BB82E00A
S11300F00E9436002FEF87EA91E62150804090401D
S1130100E1F700C0000085B385BB83E00E943600A0
S11301102FEF87EA91E6215080409040E1F700C03C
S1130120000085B385BB84E00E9436002FEF87EA88
S113013091E6215080409040E1F700C0000085B373
S10B014085BBBECFF894FFCF8C
S9030000FC
