:100000000C942A000C9434000C9434000C943400AA
:100010000C9434000C9434000C9434000C94340090
:100020000C9434000C9434000C9434000C94340080
:100030000C9434000C9434000C9434000C94340070
:100040000C9434000C9434000C9434000C94340060
:100050000C94340011241FBECFE5D8E0DEBFCDBF25
:100060000E9441000C944E000C940000BE9A87B38D
:10007000807187BB6E9A08958FB9779BFECF8FB141
:1000800008950E943600A09AC1E08FEF0E943C00C4
:100090008130D9F785B38C2785BBF7CFF894FFCF94
:00000001FF
