:100000000C942A000C943F000C943F000C943F0089
:100010000C943F000C943F000C943F000C943F0064
:100020000C943F000C943F000C943F000C943F0054
:100030000C943F000C943F000C943F000C943F0044
:100040000C943F000C943F000C943F000C943F0034
:100050000C943F0011241FBECFE5D8E0DEBFCDBF1A
:1000600010E0A0E6B0E0E2E1F2E002C005900D92FF
:10007000AC37B107D9F70E94CE000C9407010C945D
:1000800000009BB39F70282F207F922B9BBBC198B1
:10009000C39A35E33A95F1F70000C398EFE3FFE127
:1000A0003197F1F700C000002BB32F70F0E18F9F64
:1000B000C0011124822B8BBBC39A35E03A95F1F72E
:1000C0000000C3988FE39FE10197F1F700C00000A3
:1000D00008958FEF8ABB8FE087BBC2982FEF89EF1F
:1000E00090E0215080409040E1F700C0000083E3A1
:1000F0000E94410082E30E94410088E20E94410088
:100100008CE00E94410086E00E94410081E00E9454
:10011000410008959BB39F70282F207F922B9BBB9B
:10012000C19AC39A35E33A95F1F70000C398EFE11D
:10013000F3E03197F1F700C000002BB32F70F0E12E
:100140008F9FC0011124822B8BBBC39A35E33A9554
:10015000F1F70000C3988FE59DE60197F1F700C025
:1001600000000895CF93DF93EC018881882331F05C
:1001700021960E948A0089918111FBCFDF91CF9156
:10018000089581E00E9441008FE39FE10197F1F71C
:1001900000C0000080E80E94410008950E946900AC
:1001A0008898809B1AC00E94C10080E80E9441008C
:1001B00080E690E00E94B20080EC0E9441008AE656
:1001C00090E00E94B2002FEF87EA91E62150804034
:1001D0009040E1F700C00000E4CF0E94C10080E839
:1001E0000E94410080E690E00E94B20080EC0E94F4
:1001F000410083E790E00E94B2002FEF87EA91E68A
:10020000215080409040E1F700C00000CACFF89430
:02021000FFCF1E
:1002120049522053656E736520006F627374616387
:0C0222006C65004E6F7468696E67000028
:00000001FF
