S01400004144435F46414E5F4C4D33352E73726563B4
S11300000C942A000C943F000C943F000C943F0085
S11300100C943F000C943F000C943F000C943F0060
S11300200C943F000C943F000C943F000C943F0050
S11300300C943F000C943F000C943F000C943F0040
S11300400C943F000C943F000C943F000C943F0030
S11300500C943F0011241FBECFE5D8E0DEBFCDBF16
S113006010E0A0E6B0E0ECE4FDE002C005900D92E3
S1130070A63BB107D9F70E94E7000C94A4060C94A0
S113008000009BB39F70282F207F922B9BBBC198AD
S1130090C39A35E33A95F1F70000C398EFE3FFE123
S11300A03197F1F700C000002BB32F70F0E18F9F60
S11300B0C0011124822B8BBBC39A35E03A95F1F72A
S11300C00000C3988FE39FE10197F1F700C000009F
S11300D008958FEF8ABB8FE087BBC2982FEF89EF1B
S11300E090E0215080409040E1F700C0000083E39D
S11300F00E94410082E30E94410088E20E94410084
S11301008CE00E94410086E00E94410081E00E9450
S1130110410008959BB39F70282F207F922B9BBB97
S1130120C19AC39A35E33A95F1F70000C398EFE119
S1130130F3E03197F1F700C000002BB32F70F0E12A
S11301408F9FC0011124822B8BBBC39A35E33A9550
S1130150F1F70000C3988FE59DE60197F1F700C021
S113016000000895CF93DF93EC018881882331F058
S113017021960E948A0089918111FBCFDF91CF9152
S1130180089581E00E9441008FE39FE10197F1F718
S113019000C0000080E80E9441000895D098D198E2
S11301A087EA86B981EC87B908958770806C87B92E
S11301B0369A349BFECF349A8FE99FE00197F1F78A
S11301C000C0000084B125B190E0922B0895CF9334
S11301D0DF93CDB7DEB764970FB6F894DEBF0FBEDA
S11301E0CDBF81B3876081BB0E9469000E94CE00AD
S11301F00E94C1000F2EFFED9F2EF02D0F2EF0E672
S1130200AF2EF0E0BF2EF02DCE0101966C010F2E23
S1130210FEE9EF2EF0E0FF2EF02D8E01055F1F4F5B
S11302200E94C10080E80E94410080E00E94D50045
S1130230BC0180E090E00E94960220E030E040E2C1
S113024050E40E944D0320E030E040E251E40E947B
S1130250EE012B013C011F929F920E9460027F934A
S11302606F93BF92AF92DF92CF920E94BA0386E659
S113027090E00E94B200C6010E94B2009FEF21EEFE
S113028084E0915020408040E1F700C000000FB6A8
S1130290F894DEBF0FBECDBF20E030E040EF51E464
S11302A0C301B2010E944803181684F491980E9475
S11302B0C10084E790E00E94B200909A80EC0E9412
S11302C041008FE790E00E94B200929A20E030E073
S11302D040EF51E4C301B2010E94E901882384F490
S11302E090980E94C10087E890E00E94B200919A21
S11302F080EC0E94410085E990E00E94B20092984F
S11303000E94C10080E80E94410081E00E94D50063
S1130310BC01660F771F660F771F860F971FBC01FE
S113032080E090E00E94960220E030E04FE753E442
S11303300E94EE019F938F937F936F93FF92EF92AE
S11303401F930F930E94BA0381EA90E00E94B200C7
S1130350C8010E94B20086E50E948A0080EC0E94D7
S1130360410082E00E94D500BC01660F771F660F32
S1130370771F860F971FBC0180E090E00E949602D1
S113038020E030E04FE753E40E94EE019F938F9307
S11303907F936F93FF92EF921F930F930E94BA0380
S11303A08BEA90E00E94B200C8010E94B20086E588
S11303B00E948A009FEF21EE84E09150204080400B
S11303C0E1F700C000000FB6F894DEBF0FBECDBF4A
S11303D027CF0E94D30208F481E008950E9402020C
S11303E00C940E030E94070358F00E94000340F08F
S11303F029F45F3F29F00C94F70251110C94420345
S11304000C94FD020E941F0368F39923B1F3552352
S113041091F3951B550BBB27AA2762177307840713
S113042038F09F5F5F4F220F331F441FAA1FA9F3A9
S113043035D00E2E3AF0E0E832D091505040E69597
S1130440001CCAF72BD0FE2F29D0660F771F881FF8
S1130450BB1F261737074807AB07B0E809F0BB0BEB
S1130460802DBF01FF2793585F4F3AF09E3F5105FF
S113047078F00C94F7020C9442035F3FE4F3983E47
S1130480D4F3869577956795B795F7959F5FC9F7E8
S1130490880F911D9695879597F90895E1E0660F69
S11304A0771F881FBB1F621773078407BA0720F0E2
S11304B0621B730B840BBA0BEE1F88F7E09508954B
S11304C00E9467026894B1110C94420308950E943B
S11304D0270388F09F5798F0B92F9927B751B0F0A8
S11304E0E1F0660F771F881F991F1AF0BA95C9F7B4
S11304F014C0B13091F00E944103B1E008950C940E
S11305004103672F782F8827B85F39F0B93FCCF3C0
S1130510869577956795B395D9F73EF49095809530
S1130520709561957F4F8F4F9F4F0895E89409C050
S113053097FB3EF490958095709561957F4F8F4F12
S11305409F4F9923A9F0F92F96E9BB279395F69528
S1130550879577956795B795F111F8CFFAF4BB0FA6
S113056011F460FF1BC06F5F7F4F8F4F9F4F16C00A
S1130570882311F096E911C0772321F09EE8872F94
S1130580762F05C0662371F096E8862F70E060E050
S11305902AF09A95660F771F881FDAF7880F9695C9
S11305A0879597F90895990F0008550FAA0BE0E86D
S11305B0FEEF16161706E807F907C0F01216130621
S11305C0E407F50798F0621B730B840B950B39F461
S11305D00A2661F0232B242B252B21F408950A26C7
S11305E009F4A140A6958FEF811D811D089597F907
S11305F09F6780E870E060E008959FEF80EC0895C5
S113060000240A94161617061806090608950024ED
S11306100A9412161306140605060895092E039467
S1130620000C11F4882352F0BB0F40F4BF2B11F4DB
S113063060FF04C06F5F7F4F8F4F9F4F089557FD3A
S11306409058440F551F59F05F3F71F04795880F3C
S113065097FB991F61F09F3F79F0879508951216D3
S113066013061406551FF2CF4695F1DF08C016167F
S113067017061806991FF1CF869571056105089430
S11306800895E894BB2766277727CB0197F9089547
S11306900E94D30208F48FEF08950E9460030C9423
S11306A00E030E94000338F00E94070320F09523F4
S11306B011F00C94F7020C94FD0211240C944203E3
S11306C00E941F0370F3959FC1F3950F50E0551FCF
S11306D0629FF001729FBB27F00DB11D639FAA2793
S11306E0F00DB11DAA1F649F6627B00DA11D661FE2
S11306F0829F2227B00DA11D621F739FB00DA11D03
S1130700621F839FA00D611D221F749F3327A00DBC
S1130710611D231F849F600D211D822F762F6A2F58
S113072011249F5750409AF0F1F088234AF0EE0FBD
S1130730FF1FBB1F661F771F881F91505040A9F7EA
S11307409E3F510580F00C94F7020C9442035F3FE6
S1130750E4F3983ED4F3869577956795B795F79526
S1130760E7959F5FC1F7FE2B880F911D969587959E
S113077097F90895AEE0B0E0E0ECF3E00C947B066A
S11307800D891E8986E08C831A8309838FEF9FE786
S11307909E838D83AE01475E5F4F6F89788DCE0156
S11307A001960E94DC03EF81F885E00FF11F1082AF
S11307B02E96E4E00C949706ABE0B0E0E2EEF3E0B2
S11307C00C946D066C017B018A01FC011782168270
S11307D0838181FFCCC1CE0101963C01F601938156
S11307E0F70193FD859193FF81917F01882309F49B
S11307F0BAC1853239F493FD859193FF81917F01CC
S1130800853229F4B60190E00E94D305E7CF912CFC
S1130810212C312CFFE1F315D8F08B3279F038F428
S1130820803279F08332A1F4232D20611DC08D32F2
S113083061F0803369F4232D216016C0832D82601A
S1130840382EE32DE4603E2E2AC0F32DF8601DC03F
S113085037FC2DC020ED280F2A3040F08E32B9F439
S113086036FC81C1232D2064322E19C036FE06C009
S11308708AE0989E200D1124922E11C0EAE02E9E4B
S1130880200D1124222EF32DF0623F2E08C08C3649
S113089021F4832D8068382E02C0883641F4F70194
S11308A093FD859193FF81917F018111B3CF982F9F
S11308B09F7D9554933028F40C5F1F4F9FE39983D9
S11308C00DC0833631F0833771F0833509F059C098
S11308D021C0F801808189830E5F1F4F882483948F
S11308E0912C530113C02801F2E04F0E511CF80162
S11308F0A080B18036FE03C0692D70E002C06FEFA6
S11309007FEFC5010E94C8054C018201F32DFF77DA
S11309103F2E16C0280122E0420E511CF801A0808F
S1130920B18036FE03C0692D70E002C06FEF7FEF27
S1130930C5010E94BD054C01F32DF0683F2E8201D4
S113094033FC1BC0822D90E088169906B0F4B601E2
S113095080E290E00E94D3052A94F4CFF50137FC9D
S1130960859137FE81915F01B60190E00E94D30525
S113097021102A9421E0821A91088114910471F7BC
S1130980E8C0843611F0893641F5F80137FE07C016
S113099060817181828193810C5F1F4F08C06081E7
S11309A07181072E000C880B990B0E5F1F4FF32DDE
S11309B0FF763F2E97FF09C09095809570956195BD
S11309C07F4F8F4F9F4FF0683F2E2AE030E0A30106
S11309D00E940F06882E861845C0853731F4232DD2
S11309E02F7EB22E2AE030E025C0932D997FB92EB8
S11309F08F36C1F018F4883579F0B5C0803719F016
S1130A00883721F0B0C0E92FE061BE2EB4FE0DC0DE
S1130A10FB2DF460BF2E09C034FE0AC0292F2660C6
S1130A20B22E06C028E030E005C020E130E002C06C
S1130A3020E132E0F801B7FE07C060817181828154
S1130A4093810C5F1F4F06C06081718180E090E04C
S1130A500E5F1F4FA3010E940F06882E8618FB2DE0
S1130A60FF773F2E36FE0DC0232D2E7FA22E891434
S1130A7058F434FE0BC032FC09C0832D8E7EA82EA0
S1130A8005C0B82CA32C03C0B82C01C0B92CA4FEFB
S1130A900FC0FE01E80DF11D8081803321F49A2DF1
S1130AA0997EA92E09C0A2FE06C0B394B39404C0D3
S1130AB08A2D867809F0B394A3FC11C0A0FE06C069
S1130AC0B21488F4280C922C9B180EC0B21460F453
S1130AD0B60180E290E00E94D305B394F7CFB2143C
S1130AE018F42B1802C0982C212CA4FE10C0B601B7
S1130AF080E390E00E94D305A2FE17C0A1FC03C0CE
S1130B0088E790E002C088E590E0B6010CC08A2D29
S1130B10867859F0A1FE02C08BE201C080E2A7FCF6
S1130B208DE2B60190E00E94D305891438F4B60131
S1130B3080E390E00E94D3059A94F7CF8A94F3015E
S1130B40E80DF11D8081B60190E00E94D30581106B
S1130B50F5CF222009F442CEB60180E290E00E9453
S1130B60D3052A94F6CFF6018681978102C08FEFD0
S1130B709FEF2B96E2E10C948906FC0105906150ED
S1130B8070400110D8F7809590958E0F9F1F08959F
S1130B90FC016150704001900110D8F78095909548
S1130BA08E0F9F1F08950F931F93CF93DF93FB0125
S1130BB0238121FD03C08FEF9FEF2CC022FF16C0BD
S1130BC046815781248135814217530744F4A0811B
S1130BD0B1819D012F5F3F4F318320838C93268108
S1130BE037812F5F3F4F3783268314C08B01EC017D
S1130BF0FB010084F185E02D0995892BE1F6D801EC
S1130C0016968D919C911797019617969C938E93A7
S1130C101697CE01DF91CF911F910F910895FA019C
S1130C20AA27283051F1203181F1E8946F936E7F27
S1130C306E5F7F4F8F4F9F4FAF4FB1E03ED0B4E018
S1130C403CD0670F781F891F9A1FA11D680F791F59
S1130C508A1F911DA11D6A0F711D811D911DA11D6A
S1130C6020D009F468943F912AE0269F112430197A
S1130C70305D3193DEF6CF010895462F4770405D15
S1130C804193B3E00FD0C9F7F6CF462F4F70405DC4
S1130C904A3318F0495D31FD4052419302D0A9F71F
S1130CA0EACFB4E0A6959795879577956795BA9519
S1130CB0C9F700976105710508959B01AC010A2EDF
S1130CC006945795479537952795BA95C9F7620FB6
S1130CD0731F841F951FA01D08952F923F924F925A
S1130CE05F926F927F928F929F92AF92BF92CF92B8
S1130CF0DF92EF92FF920F931F93CF93DF93CDB7C1
S1130D00DEB7CA1BDB0B0FB6F894DEBF0FBECDBF38
S1130D1009942A88398848885F846E847D848C8409
S1130D209B84AA84B984C884DF80EE80FD800C8112
S1130D301B81AA81B981CE0FD11D0FB6F894DEBFF5
S10F0D400FBECDBFED010895F894FFCF65
S1130D4C25642563430054656D7065726174757216
S1130D5C653D2000524544204C4544204F4E002014
S1130D6C46414E204F4E005748697465204C45440B
S1130D7C20204F4E002046414E204F46460025640D
S1130D8C00766F6C542831293D2000766F6C7428E2
S1090D9C32293D20000095
S9030000FC
