:100000000C942A000C9434000C9434000C943400AA
:100010000C9434000C9434000C9434000C94340090
:100020000C9434000C9434000C9434000C94340080
:100030000C9434000C9434000C9434000C94340070
:100040000C9434000C9434000C9434000C94340060
:100050000C94340011241FBECFE5D8E0DEBFCDBF25
:100060000E9436000C9459000C94000087B38863FA
:1000700087BBC59A83B7896783BF89B7836089BF08
:1000800078948FEF8CBF8FE78CBFEFE1FEE4319760
:10009000F1F700C000008F5F8F3FB1F78CBFEFE139
:1000A000FEE43197F1F700C0000081508F37B1F7BF
:0600B000EACFF894FFCF37
:00000001FF
