:100000000C942A000C943C000C943C000C943C0092
:100010000C943C000C943C000C943C000C943C0070
:100020000C943C000C943C000C943C000C943C0060
:100030000C943C000C943C000C943C000C943C0050
:100040000C943C000C943C000C943C000C943C0040
:100050000C943C0011241FBECFE5D8E0DEBFCDBF1D
:1000600020E0A0E6B0E001C01D92A236B207E1F7A1
:100070000E943E000C947F000C940000A09AD0983F
:10008000889A21E0C89BFECF8BE594E40197F1F7B5
:1000900000C00000809160009091610001969093F3
:1000A0006100809360008130910519F0029789F01A
:1000B00023C085B3822785BB9FE33DE083E0915059
:1000C00030408040E1F700C0000085B3822785BB47
:1000D00013C082B3822782BB9FE33DE083E091504F
:1000E00030408040E1F700C0000085B3822785BB27
:1000F0001092610010926000C899FECFC3CFF894AF
:02010000FFCF2F
:00000001FF
