:100000000C942A000C943F000C943F000C943F0089
:100010000C943F000C943F000C943F000C943F0064
:100020000C943F000C943F000C943F000C943F0054
:100030000C943F000C943F000C943F000C943F0044
:100040000C943F000C943F000C943F000C943F0034
:100050000C943F0011241FBECFE5D8E0DEBFCDBF1A
:1000600010E0A0E6B0E0EEEAF1E002C005900D92EB
:10007000AE36B107D9F70E9461000C94D5000C94FC
:1000800000008AB188618AB980B5866880BD87E63C
:1000900089B908955D9BFECF8CB90895CF93DF9306
:1000A000EC018881882331F021960E944A008991D1
:1000B0008111FBCFDF91CF9108955F9BFECF8CB173
:1000C00008950E94410080E690E00E944E00A29AAE
:1000D00084B3886784BB81B3806381BB82B3806350
:1000E00082BB0E945D008233B9F018F4813331F095
:1000F000F8CF8333F9F0843359F1F3CF81E00E94D4
:10010000B6002FEF87EA91E6215080409040E1F75A
:1001100000C0000015BAE5CF82E00E94B6002FEFC4
:1001200087EA91E6215080409040E1F700C000004E
:1001300015BAD7CF83E00E94B6002FEF87EA91E689
:10014000215080409040E1F700C0000015BAC9CFAF
:1001500084E00E94B6002FEF87EA91E621508040AC
:100160009040E1F700C0000015BABBCF823071F0BB
:1001700018F4813031F00895833069F0843081F0D3
:10018000089585B3806685BBAB98089585B3806379
:1001900085BBAE98089585B3886185BBAD980895F9
:0E01A00085B3886485BBAC980895F894FFCFB2
:0E01AE004162646F5F4D616764790D0A000065
:00000001FF
