S01C0000747261666669635F65787465726E616C5F6973722E73726563BA
S11300000C942A000C946C000C943C000C943C005E
S11300100C943C000C943C000C943C000C943C006C
S11300200C943C000C943C000C943C000C943C005C
S11300300C943C000C943C000C943C000C943C004C
S11300400C943C000C943C000C943C000C943C003C
S11300500C943C0011241FBECFE5D8E0DEBFCDBF19
S113006020E0A0E6B0E001C01D92A236B207E1F79D
S11300700E94BF000C9414010C940000DF9A2FEF2F
S113008081EE94E0215080409040E1F700C00000F0
S1130090DF982FEF81EE94E0215080409040E1F70B
S11300A000C000000895DF980895DD9A2FEF81EED7
S11300B094E0215080409040E1F700C00000DD98BA
S11300C02FEF81EE94E0215080409040E1F700C092
S11300D000000895DD9808951F920F920FB60F92B5
S11300E011242F933F934F935F936F937F938F9339
S11300F09F93AF93BF93CF93EF93FF93809160004F
S11301008230A1F480916100CFE0C81B8C1748F4C1
S11301100E945500809161008F5F809361008C176D
S1130120B8F30E946A0088E080936100FF91EF9128
S1130130CF91BF91AF919F918F917F916F915F917B
S11301404F913F912F910F900FBE0F901F901895D4
S1130150DE9A2FEF81EE94E0215080409040E1F749
S113016000C00000DE982FEF81EE94E02150804023
S11301709040E1F700C000000895DE9808958BB721
S113018080648BBF85B7836085BF78948AB38FEF13
S11301908ABB1092610010926000D2E0C1E08091AD
S11301A06000813041F060F08230D9F780916100C5
S11301B08730D0F022C080916100833028F12DC0B7
S11301C0809161008F3048F40E943E00809161006C
S11301D08F5F809361008F30B8F30E9453001092B8
S11301E06100D0936000DBCF0E94550080916100D4
S11301F08F5F809361008730B8F30E946A00109289
S11302006100C0936000CBCF0E94A8008091610080
S11302108F5F809361008330B8F30E94BD00109219
S10F0220610010926000BBCFF894FFCF87
S9030000FC
