S027000054696D6572305F4E6F726D616C5F4D6F64655F67656E657261745F576176652E73726563E9
S11300000C942A000C943C000C943C000C943C008E
S11300100C943C000C943C000C943C000C943C006C
S11300200C943C000C943C000C9466000C943C0032
S11300300C943C000C943C000C943C000C943C004C
S11300400C943C000C943C000C943C000C943C003C
S11300500C943C0011241FBECFE5D8E0DEBFCDBF19
S113006020E0A0E6B0E001C01D92A436B207E1F79B
S11300700E943E000C948A000C940000BB9A83B743
S1130080856183BF89B7826089BF78948FE78CBF0D
S113009020E28091620090916300813D934039F4A5
S11300A082B3805882BB10926300109262008091E8
S11300B06000909161008531934159F782B38227A2
S11300C082BB1092610010926000E3CF1F920F92E6
S11300D00FB60F9211248F939F9380916200909199
S11300E063000196909363008093620080916000A6
S11300F0909161000196909361008093600092B3A7
S113010080E4892782BB9F918F910F900FBE0F903F
S10B01101F901895F894FFCF2D
S9030000FC
