S01400004953525F494E54305F4C45442E7372656374
S11300000C942A000C945A000C943C000C943C0070
S11300100C943C000C943C000C943C000C943C006C
S11300200C943C000C943C000C943C000C943C005C
S11300300C943C000C943C000C943C000C943C004C
S11300400C943C000C943C000C943C000C943C003C
S11300500C943C0011241FBECFE5D8E0DEBFCDBF19
S113006020E0A0E6B0E001C01D92A136B207E1F79E
S11300700E943E000C946B000C9400008F9A8BB786
S113008080648BBF85B7836085BF7894979880918F
S113009060008130E1F782B3805882BB2FEF81EE9C
S11300A094E0215080409040E1F700C0000010929D
S11300B06000EDCF1F920F920FB60F9211248F9311
S11300C0809160008F5F809360008F910F900FBECE
S10D00D00F901F901895F894FFCFCD
S9030000FC
