:100000000C942A000C943C000C943C000C943C0092
:100010000C943C000C943C000C943C000C943C0070
:100020000C943C000C943C000C943C000C9481001B
:100030000C943C000C943C000C943C000C943C0050
:100040000C943C000C943C000C943C000C943C0040
:100050000C943C0011241FBECFE5D8E0DEBFCDBF1D
:1000600020E0A0E6B0E001C01D92A336B207E1F7A0
:100070000E943E000C949C000C94000081B3806EA2
:1000800081BB83B7836083BF89B7816089BF789460
:1000900020E290E480916200883C71F482B3822770
:1000A00082BB3FEF44E684E0315040408040E1F7BE
:1000B00000C0000010926200809161008A3F71F4DC
:1000C00082B3892782BB3FEF44E684E03150404051
:1000D0008040E1F700C00000109261008091600054
:1000E0008436C1F682B3805882BB3FEF44E684E099
:1000F000315040408040E1F700C0000010926000A5
:10010000C9CF1F920F920FB60F9211248F93809137
:1001100062008F5F80936200809161008F5F8093A7
:100120006100809160008F5F809360008F910F90DD
:0C0130000FBE0F901F901895F894FFCFA1
:00000001FF
